:1000000012C017C016C015C014C013C012C011C052
:1000100010C00FC00EC00DC00CC00BC00AC009C07C
:1000200008C007C006C011241FBECFEDCDBF4FD002
:1000300076C0E6CF86BF08958CBF0895823051F018
:10004000833051F0813019F021E030E009C0C09ACE
:10005000C19804C0C09801C0C09AC19A20E030E0A5
:10006000C9010895823051F0833051F0813019F088
:1000700021E030E009C0C69AC79804C0C69801C004
:10008000C69AC79A20E030E0C90108958D9A87B3D7
:10009000876C87BB80B7806880BF80B78F7B80BF4D
:1000A00080B7806280BF80B78F7E80BF80B783605B
:1000B00080BF83B7877F83BF83B78D7F83BF83B7BD
:1000C000856083BF16BE1CBE0895E0DF0895EF92E1
:1000D000FF921F93CF93DF93D9DF8FEAADDF82E0EA
:1000E000ADDF81E0BFDFC0E0D0E080E4E82E8FE14B
:1000F000F82E06C08C2F9EDFC7010197F1F72196DD
:10010000CA3FD105BCF31FEF812F94DFC7010197D0
:10011000F1F711501130C1F7C0E0D0E0F1CFF89401
:02012000FFCF0F
:00000001FF
